:0E00000017C0FECFFDCFFCCFFBCFFACF12C151
:10000E00F8CFF7CFF6CFF5CFF4CFF3CFF2CFF1CFC6
:10001E00F0CFEFCFEECFEDCF0000020004002600B0
:10002E000000F894EE27ECBBF1E0FBBFEBBFE5BFA1
:10003E00F8E1F1BDE1BD8DE0A2E0BB27ED938A951D
:10004E00E9F780E094E0A0E6ED930197E9F7E8E2A6
:10005E00F0E085919591009761F0A591B59105908D
:10006E001590BF01F00105900D920197E1F7FB018C
:10007E00F0CFEFE5EDBFE4E0EEBFC0E6D1E000C0AB
:10008E00E4D0929805D1F1F7929A27D002D0FDCF05
:10009E00FFCFB29906C0ECE0EEBD929AA4EFB1E0AC
:1000AE001CD1B19919C0E0E0EEBDF7D09298A8EE40
:1000BE00B3E013D1B19910C0A4ECB9E00ED1B1994F
:1000CE000BC0A998AA98AB98AC98AD989098442478
:1000DE005524E3D0DDD0F1F70895E4D014F0E6D046
:1000EE000CF003C0E1E0E0936001E5D014F0E8D03D
:1000FE000CF003C0E1E0E0936001E0916001E030BC
:10010E0011F0A99A01C0A998E0E0E0936001DDD05A
:10011E0024F0E4E4F2E0DED00CF003C0E1E0E09382
:10012E006101C0D014F0BED00CF003C0E1E0E0934A
:10013E006101E0916101E03011F0AA9A01C0AA9824
:10014E00E0E0E0936101C1D014F0B5D00CF003C033
:10015E00E1E0E0936201A6D014F0A4D00CF003C04D
:10016E00E1E0E0936201E0916201E03011F0AB9AC0
:10017E0001C0AB98E0E0E093620198D014F09BD000
:10018E000CF003C0E1E0E09363018CD014F08AD050
:10019E000CF003C0E1E0E0936301E0916301E03015
:1001AE0011F0AC9A01C0AC98E0E0E09363017AD014
:1001BE0024F0E8E1F1E08ED00CF003C0E1E0E09332
:1001CE006401E0EEF1E086D014F07AD00CF003C0BA
:1001DE00E1E0E0936401E0916401E03011F0AD9A4A
:1001EE0001C0AD98E0E0E09364015CD014F05ED005
:1001FE000CF003C0E1E0E0936501E0EEF1E06AD0BF
:10020E0014F05ED00CF003C0E1E0E0936501E091E4
:10021E006501E03011F0909A01C09098E0E0E09313
:10022E0065010895EA93FA93EFB7EA93F2013196D6
:10023E002F01E7E5F2E0E415F50514F44424552406
:10024E00E991EFBFF991E9911895A0E0B0E04FD098
:10025E002F01E6E0E8BBE0E0E7BBE5BBEEE3E4BB85
:10026E00E0E0E2BBE7E0E1BBE0E0EFBDECE0EEBDDD
:10027E00E0E0EDBDECBDE7BDE6BDE4EFEBBDE4E2D5
:10028E00EABDE0E0E9BDE8BDE0E1E9BF789408959C
:10029E00A0E0B299A1E0A0300895F201A0E0B0E094
:1002AE0036D008950024401450040895E0EFF0E095
:1002BE004E165F060895ECE1F2E04E165F060895C5
:1002CE00E8E5F2E04E165F060895E4EBF0E04E1618
:1002DE005F0608954E165F060895109639F080EA6F
:1002EE009FE00197F1F7A8951197C9F70895119618
:1002FE0002D0FE2F1197E199FECFFF93FFB7F8942E
:10030E00AEBBBFBBE09AEDB3FFBFFF91089507D020
:10031E001196EF93EF2F03D0EF9111970895E19B74
:10032E0002C0A895FCCF9FB7F894AEBBBFBBE09AB6
:10033E008DB3E81719F0EDBBE29AE19A9FBF0895CD
:00000001FF
